:1000000082C00000B0C00000AEC00000ACC0000064
:10001000AAC00000A8C00000A6C00000A4C0000044
:10002000A2C00000A0C000009EC000009CC0000054
:100030009AC0000098C0000096C0000094C0000064
:1000400092C0000090C000008EC000008CC0000074
:100050008AC0000088C0000086C00000B5C400004F
:1000600082C000007BC4000050C400007CC00000BF
:100070007AC0000078C0000076C0000074C00000A4
:1000800072C0000070C000006EC000006CC00000B4
:100090006AC0000068C0000066C0000064C00000C4
:1000A00062C0000060C000005EC000005CC00000D4
:1000B0005AC0000058C0000056C0000054C00000E4
:1000C00052C0000050C000004EC000004CC00000F4
:1000D0004AC0000048C0000046C0000044C0000004
:1000E00042C0000005A84CCDB2D44EB93836A902A2
:1000F0000C50B9918688083CA6AAAA2ABE00000026
:10010000803F2E05410A11241FBECFEFD1E2DEBF92
:10011000CDBF00E00CBF12E0A0E0B2E0E6EBFCE1F6
:1001200000E00BBF02C007900D92A832B107D9F7CB
:1001300021E8A8E2B2E001C01D92A43AB207E1F7BB
:1001400010E0C2E8D0E000E006C021970109802F4E
:10015000FE010E946D0AC138D10780E00807A9F7A7
:100160002DD50C944A0E4CCFF82FE92F9B0164E05B
:1001700070E00E94460A8130910519F11CF4892B28
:1001800041F0089582309105B1F1039709F44DC013
:1001900008956F2F7E2F77FF02C06D5F7F4F75959B
:1001A00067957595679581EA869FF001879FF00DA9
:1001B0001124E20FF31FE75FFC4F437080818C7FB7
:1001C0004EC06F2F7E2F77FF02C06D5F7F4F7595FA
:1001D00067957595679581EA869FF001879FF00D79
:1001E0001124E20FF31FE75FFC4F4370440F440FED
:1001F0008081837F34C06F2F7E2F77FF02C06D5FB9
:100200007F4F759567957595679581EA869FF00193
:10021000879FF00D1124E20FF31FE75FFC4F43703F
:100220004295407F80818F7C1AC06F2F7E2F77FF91
:1002300002C06D5F7F4F759567957595679581EAEB
:10024000869FF001879FF00D1124E20FF31FE75FF7
:10025000FC4F4295440F440F407C80818F73482BA4
:1002600040830895F82FE92F9B0164E070E00E941D
:10027000460A8130910511F11CF4892B41F069C0C7
:100280008230910591F1039709F448C062C04F2F65
:100290005E2F57FF02C04D5F5F4F559547955595AF
:1002A000479581EA849FF001859FF00D11242E0F60
:1002B0003F1FF901E75FFC4F808149C04F2F5E2F40
:1002C00057FF02C04D5F5F4F559547955595479530
:1002D00081EA849FF001859FF00D11242E0F3F1FAE
:1002E000F901E75FFC4F808130C04F2F5E2F57FF31
:1002F00002C04D5F5F4F559547955595479581EAEB
:10030000849FF001859FF00D11242E0F3F1FF901EE
:10031000E75FFC4F808182958F7019C04F2F5E2F51
:1003200057FF02C04D5F5F4F5595479555954795CF
:1003300081EA849FF001859FF00D11242E0F3F1F4D
:10034000F901E75FFC4F80818295869586958370E1
:10035000089508958F929F92AF92BF92CF92DF92AD
:10036000EF92FF920F931F93CF93DF937C016B016A
:100370004A01DA011D921C92CFEFDFEF0FEF1FEF62
:100380005E01F2E0AF0EB11CC501800F911F80FF2E
:100390000CC0F70162817381600F711F80819181B0
:1003A0008C0F9D1F5FDF8130B1F40F5F1F4F023054
:1003B000110551F72196C230D10501F7DF91CF9198
:1003C0001F910F91FF90EF90DF90CF90BF90AF9073
:1003D0009F908F900895D401ED91FC911197CF01DA
:1003E00001968D939C93EE0FFF1FEE0FFF1FEC0DF8
:1003F000FD1DD70112968D919C911397800F911F2F
:100400002D913C912C0F3D1F318320839383828358
:10041000CCCFCF92DF92EF92FF920F931F93CF93A7
:10042000DF936C017A018B01C0E0D0E0CE15DF05CF
:1004300089F0D8016D918D01D601ED91FC9101906B
:10044000F081E02DC6011995892B11F47E0102C0BF
:100450002196ECCFC701DF91CF911F910F91FF90B3
:10046000EF90DF90CF900895FC01918D828D9817C9
:1004700061F0828DDF01A80FB11D5D968C91928D88
:100480009F5F9F73928F90E008958FEF9FEF089585
:10049000FC01918D828D981731F0828DE80FF11D4E
:1004A000858D90E008958FEF9FEF0895FC01918D69
:1004B000228D892F90E0805C9F4F821B91098F7362
:1004C0009927089588E692E0F1DF21E0892B09F46D
:1004D00020E0822F0895FC01848DDF01A80FB11D5B
:1004E000A35ABF4F2C91848D90E001968F7399276A
:1004F000848FA689B7892C93A089B1898C91806457
:100500008C93938D848D981306C00288F389E02D17
:1005100080818F7D80830895EF92FF920F931F93C8
:10052000CF93DF93EC0181E0888F9B8D8C8D9813A6
:1005300005C0E889F989808185FD23C0F62E0B8DE1
:1005400010E00F5F1F4F0F731127E02E8C8DE81204
:100550000BC00FB607FCFACFE889F989808185FFC7
:10056000F5CFCE01B8DFF2CF8B8DFE01E80FF11D84
:10057000E35AFF4FF0820B8FEA89FB89808180620A
:1005800007C0EE89FF896083E889F98980818064EA
:10059000808381E090E0DF91CF911F910F91FF90D8
:1005A000EF900895CF93DF93EC01888D8823C1F0FD
:1005B000EA89FB89808185FD05C0A889B9898C916C
:1005C00086FD0EC00FB607FCF5CF808185FFF2CF08
:1005D000A889B9898C9185FFEDCFCE017CDFE8CF6A
:1005E000DF91CF91089580E090E0892B19F06ADFC8
:1005F000811125C080E090E0892B41F080E090E0FF
:10060000892B21F00E94000081111CC080E090E045
:10061000892B41F080E090E0892B21F00E940000BE
:10062000811113C080E090E0892BA1F080E090E080
:10063000892B81F00E94000081110AC008950E9458
:100640000000D8CF0E940000E1CF0E940000EACF56
:100650000C94000008953FB7F8948091290290917E
:100660002A02A0912B02B0912C0226B5A89B05C0AE
:100670002F3F19F00196A11DB11D3FBFBA2FA92F21
:10068000982F8827820F911DA11DB11DBC01CD019E
:1006900042E0660F771F881F991F4A95D1F708958A
:1006A0008F929F92AF92BF92CF92DF92EF92FF9282
:1006B0006B017C01D0DF4B015C01C114D104E1046A
:1006C000F104E9F0C8DFDC01CB0188199909AA0916
:1006D000BB09883E9340A105B10578F321E0C21A19
:1006E000D108E108F10888EE880E83E0981EA11C6D
:1006F000B11CC114D104E104F10421F7DECFFF9055
:10070000EF90DF90CF90BF90AF909F908F90089523
:10071000CF92DF92EF92FF92FC01808191819B0149
:10072000281B390B3595279535952795DB01448195
:100730005581CA0101972817390768F42F5F3F4F89
:100740001496CD90DD90ED90FC901797CD92DD92B0
:10075000ED92FD92ECCF8417950710F49583848376
:10076000CB01FF90EF90DF90CF9008950E94260D6F
:10077000AF92BF92CF92DF92EF92FF920F931F93AF
:10078000CF93DF93EC01CC80DD80C616D70608F04E
:1007900054C07A018B018A819B818617970768F57F
:1007A0009B01285F3F4F8217930738F5A880B980D7
:1007B0003B832A83C901880F991F880F991F0E94C4
:1007C000F90B88839983D501FC0120E030E02C15DA
:1007D0003D0581F0309749F04D915D916D917C918F
:1007E000139740835183628373832F5F3F4F149627
:1007F0003496EDCFC5010E948E0C8C819D819C01A9
:10080000220F331F220F331F8017910798F4E881BE
:10081000F981E20FF31F309749F0D7014D915D91B7
:100820006D917C91408351836283738301962C5F29
:100830003F4FEACF1D830C8305C06C157D0510F476
:100840007D836C83DF91CF911F910F91FF90EF908B
:10085000DF90CF90BF90AF900895EF92FF920F93EB
:100860001F93CF93DF938B0120918A8130918B81ED
:10087000EC01C21BD30B7E01F594E794F594E79449
:1008800060918E8170918F816F5F7F4FA8018AE8A0
:1008900091E86EDF40918E8150918F819A012150B5
:1008A000304C220F331F220F331F41505109B90121
:1008B0006450710980918A8190918B81E416F506CC
:1008C00088F4FC01E20FF31FDC01A60FB71F8D9126
:1008D0009D910D90BC91A02D80839183A283B383C1
:1008E0009B01E3CF8C0F9D1FF801408151816281F4
:1008F0007381FC014083518362837383DF91CF91C5
:100900001F910F91FF90EF9008951F920F920FB6D5
:100910000F9211240BB60F922F933F934F935F9337
:100920006F937F938F939F93AF93BF93EF93FF93B7
:1009300088E692E0D0DDFF91EF91BF91AF919F915A
:100940008F917F916F915F914F913F912F910F9078
:100950000BBE0F900FBE0F901F9018951F920F9215
:100960000FB60F9211240BB60F922F938F939F9374
:10097000EF93FF93E0917802F09179028081E0910A
:100980007E02F0917F0282FD12C0908180918102EF
:100990008F5F8F7320918202821751F0E091810264
:1009A000F0E0E859FD4F958F8093810201C080816E
:1009B000FF91EF919F918F912F910F900BBE0F9010
:1009C0000FBE0F901F9018951F920F920FB60F92A7
:1009D00011242F933F938F939F93AF93BF93809155
:1009E0002D0290912E02A0912F02B09130023091F1
:1009F000280223E0230F2D3720F40196A11DB11DFD
:100A000005C026E8230F0296A11DB11D20932802E0
:100A100080932D0290932E02A0932F02B093300268
:100A20008091290290912A02A0912B02B0912C0270
:100A30000196A11DB11D8093290290932A02A093D3
:100A40002B02B0932C02BF91AF919F918F913F9158
:100A50002F910F900FBE0F901F901895CF93DF939B
:100A6000E8E6F2E01382128288EE93E0A0E0B0E0C4
:100A700084839583A683B7838AE092E09183808301
:100A800085EC90E09587848784EC90E09787868753
:100A900080EC90E0918B808B81EC90E0938B828B4B
:100AA00082EC90E0958B848B86EC90E0978B868B24
:100AB000118E128E138E148EC5E0D3E010927A81BF
:100AC00010927B8110927C8110927D8110927E81A8
:100AD00010927F8110928081109281811092828188
:100AE0001092838110928481109285811092868168
:100AF00010928781109288811092898188E090E01D
:100B000090938D8180938C8110928F8110928E8131
:100B100080E290E06ED690938B8180938A811092D0
:100B2000928110929181109294811092938180E031
:100B300090E0A0E8BFE38093728190937381A093CB
:100B40007481B093758180E090E0A0E0B0E4809380
:100B5000768190937781A0937881B093798180E0BA
:100B600090E0A0E4B0E48093958190939681A09367
:100B70009781B093988187E491E090939E818093D0
:100B80009D8181E495E6E9E0F3E0DF019C011D929F
:100B900021503040E1F741E455E66FEF7FEF81E30C
:100BA0009CE158D780E590E0998388839B838A8372
:100BB00081E080939F81DF91CF910895CF93DF9360
:100BC000CDB7DEB7A3970FB6F894DEBF0FBECDBF8B
:100BD000789484B5826084BD84B5816084BD85B518
:100BE000826085BD85B5816085BD80916E00816024
:100BF00080936E00109281008091810082608093CA
:100C000081008091810081608093810080918000CB
:100C10008160809380008091B10084608093B100F6
:100C20008091B00081608093B000809191008260DB
:100C300080939100809191008160809391008091D8
:100C400090008160809390008091A10082608093E9
:100C5000A1008091A10081608093A1008091A000FB
:100C600081608093A00080912101826080932101A6
:100C70008091210181608093210180912001816018
:100C80008093200180917A00846080937A00809123
:100C90007A00826080937A0080917A0081608093EC
:100CA0007A0080917A00806880937A001092C10067
:100CB000109264021092650210926602109267020E
:100CC00010923202109233021092340210923502C6
:100CD00060ED77E080E090E0E3DC88E692E09093DE
:100CE000630280936202E0917802F091790282E0DF
:100CF0008083E0917402F09175021082E091760297
:100D0000F091770280E1808310928002E0917C0272
:100D1000F0917D0286E08083E0917A02F0917B027F
:100D2000808180618083E0917A02F0917B028081F2
:100D300088608083E0917A02F0917B0280818068F4
:100D40008083E0917A02F0917B0280818F7D8083A5
:100D50002FB7F89480912D0290912E02A0912F022E
:100D6000B09130022FBF4091320250913302609116
:100D7000340270913502841B950BA60BB70BC297FA
:100D8000A105B10530F463E070E080E090E088DC1C
:100D9000DFCF2FB7F89480912D0290912E02A09171
:100DA0002F02B09130022FBF809332029093330212
:100DB000A0933402B0933502809162029091630255
:100DC000DC01ED91FC910280F381E02D41E150E0E6
:100DD00066E172E019956AE070E080E090E060DC26
:100DE00081E0809336028E010F5E1F4F80918E81CD
:100DF00090918F81892B09F45FC0E0908A81F090F7
:100E00008B81F70120813181809105039091060348
:100E1000B901681B790B828193814091070350913E
:100E200008036C01C41AD50A309306032093050306
:100E30009093080380930703072E000C880B990BEF
:100E400016D620E030E040E251E470D69B01AC01C0
:100E5000609172817091738180917481909175819C
:100E600045D3609372817093738180937481909362
:100E70007581B601DD0C880B990BF9D520E030E0C7
:100E800040E251E453D69B01AC01609176817091B0
:100E90007781809178819091798128D36093768150
:100EA000709377818093788190937981B7018AE8F4
:100EB00091E82EDC98DB9ACF2BED3FE049EC50E433
:100EC00060919581709196818091978190919881A0
:100ED0000DD368A379A38AA39BA3C0909581D090DA
:100EE0009681E0909781F090988128A139A14AA13C
:100EF0005BA1C701B601B5D587FFECC060919D81AC
:100F000070919E817F8F6E8F6B3071050CF468C07D
:100F1000C701B6014FD320E030E040E251E406D6ED
:100F200020E030E040E251E448D34B015C016091A5
:100F3000050370910603072E000C880B990B97D5BB
:100F40009B01AC01C501B401D1D29FD34B015C011F
:100F5000C701B60104D420E030E040E251E4E6D518
:100F600020E030E040E251E428D36B017C01609145
:100F7000070370910803072E000C880B990B77D597
:100F80009B01AC01C701B601B1D27FD37B0141E027
:100F9000C401EAD891E0891A910883E0782E5701BC
:100FA000A1E0AA1AB108B2E0EB0EF11C6501B6018E
:100FB000C40158D9813021F041E0B601C401D4D830
:100FC0007FEFC71AD70ACE14DF0489F77A948FEF20
:100FD000881A980A7110EACFAAE0B0E0BF8FAE8FEE
:100FE000212C312CEE8DFF8D2E163F060CF05CC0AF
:100FF000B101032C000C880B990B39D56B017C01D6
:101000008090958190909681A0909781B0909881E2
:10101000C501B401CFD29B01AC01C701B60186D591
:1010200020E030E040E251E4C8D22B013C01609165
:10103000050370910603072E000C880B990B17D53A
:101040009B01AC01C301B20151D21FD32B013C0162
:10105000C501B40184D39B01AC01C701B60166D5BB
:1010600020E030E040E251E4A8D26B017C016091C5
:10107000070370910803072E000C880B990BF7D417
:101080009B01AC01C701B60131D2FFD26B017C01DB
:10109000C201E8D8811104C042E0B601C20164D89F
:1010A000BFEF2B1A3B0A9ECF25E33AEF4EE85CE3F5
:1010B00060919581709196818091978190919881AE
:1010C00015D26093958170939681809397819093C8
:1010D000988103CF80918E8190918F81892B21F00F
:1010E00010928F8110928E8141E455E66FEF7FEF71
:1010F00081E39CE1AFD488E090E09C8B8B8B1E8ACF
:101100001D8A80E290E075D39A8B898B80910703CA
:101110009091080320910503309106033A832983B7
:101120009C838B83AE014F5F5F4F61E070E0C8012D
:101130001FDB809105039091060321EA289FF001AF
:10114000299FF00D11248091070390910803E80F67
:10115000F91FEF5CF34E108261EAB62E8D899E89ED
:10116000892B09F49BC069897A89FB01808191816F
:10117000A281B381888F998FAA8FBB8FC801C8DAEB
:10118000BE016F5F7F4F6B01FB01118210821382E2
:1011900012823496E017F107C1F7AE01445E5F4F4B
:1011A000BE016F5F7F4FCE014896D4D8E12CF12C61
:1011B0008C8D9D8DE816F9068CF6D60112968D90D1
:1011C0009C9013976D907C90B401C3014BD8811112
:1011D00029C081EA869DF001879DF00D1124E80D5C
:1011E000F91DEF5CF34E288D398D829FD001839FCE
:1011F000B00D11248A8D9B8DA80FB91FAF5CB34E23
:101200008C918F5F8083EE0CFF1CEE0CFF1CE1E0E5
:10121000F0E0EC0FFD1FEE0DFF1DC080D180E280DD
:10122000F38042C0B69C9001B79C300D1124F401AC
:10123000E20FF31FEF5CF34E80818F3F41F56D8924
:101240007E896F5F7F4FA601C80192DAF601808127
:101250009181B89EF001B99EF00D1124D60112962D
:101260008D919C911397E80FF91FEF5CF34E888DD9
:10127000998DB89ED001B99EB00D11248A8D9B8D99
:10128000A80FB91FAF5CB34E8C918F5F8083BFEF07
:10129000EB1AFB0AE4E0CE0ED11C8ACFEE24EA94CE
:1012A000FE2CCC24CA94DC2C89899A8937D3D0921D
:1012B0009281C0929181F0929481E0929381FFEFAC
:1012C000CF16DF0609F4F6CD21EA2C9DC0012D9D35
:1012D000900D1124F701E80FF91FEF5CF34E4080E9
:1012E000042C000C55088091918190919281A091DD
:1012F0009381B0919481898B9A8BAB8BBC8B97E057
:10130000C92ED12C27E0A22EB12C812C912C1E8E1F
:10131000809191819091928161EA689FF001699F2B
:10132000F00D11248091938190919481E80FF91F21
:10133000EF5CF34E8081082E000C990B88169906FD
:101340000CF0B8CDCE0101967C01FC011182108217
:10135000138212823496E017F107C1F7AE01485E9E
:101360005F4FBE016F5F7F4FC8010E94AA01612CD1
:10137000712C888D998D681679060CF07EC0D70186
:101380002D913C91119712968D919C911397B1EAF2
:10139000B29FF001B39FF00D1124E80FF91FEF5C2D
:1013A000F34E2080022C000C3308A2014150510959
:1013B0002416350609F05AC0E7E0AE16B10471F400
:1013C00049895A895901A41AB50A4B895C896C016B
:1013D000C41AD50AFE8DFF23A1F003C04E8D44230D
:1013E00041F0B70180918A8190918B8136DA260194
:1013F0002EC049895A89B901641B750B6A157B0592
:10140000F9F44B895C892C01441A550A4C145D048B
:10141000B9F460919D8170919E814091918150912C
:101420009281241B350B621773075CF02091938126
:1014300030919481821B930B681779075CF401C08B
:101440002601B70180918A8190918B8106DA21E093
:101450002E8F01C01E8EF70180819181A281B38100
:10146000898B9A8BAB8BBC8B62012101FFEF6F1ACA
:101470007F0A24E0E20EF11C7CCF4FEF841A940A1D
:1014800047CF80918A8190918B8148C297FB072E2C
:1014900016F4009406D077FD08D00BD007FC05D0D9
:1014A0003EF4909581959F4F0895709561957F4F7B
:1014B0000895AA1BBB1B51E107C0AA1FBB1FA6179B
:1014C000B70710F0A61BB70B881F991F5A95A9F7ED
:1014D00080959095BC01CD010895EE0FFF1F881FE8
:1014E0008BBF0790F691E02D19945058BB27AA277F
:1014F0000ED096C387D330F08CD320F031F49F3FC9
:1015000011F41EF47CC30EF4E095E7FB72C3E92FDF
:1015100098D380F3BA17620773078407950718F00A
:1015200071F49EF5B0C30EF4E0950B2EBA2FA02DEA
:101530000B01B90190010C01CA01A0011124FF2780
:10154000591B99F0593F50F4503E68F11A16F0407B
:10155000A22F232F342F4427585FF3CF469537957A
:101560002795A795F0405395C9F77EF41F16BA0B3F
:10157000620B730B840BBAF09150A1F0FF0FBB1FED
:10158000661F771F881FC2F70EC0BA0F621F731F36
:10159000841F48F4879577956795B795F7959E3F93
:1015A00008F0B3CF9395880F08F09927EE0F979521
:1015B000879508959CD0E395C1C00CD031C329D341
:1015C00040F020D330F021F45F3F19F012C35111E5
:1015D0005BC315C336D398F39923C9F35523B1F3ED
:1015E000951B550BBB27AA2762177307840738F092
:1015F0009F5F5F4F220F331F441FAA1FA9F333D0F1
:101600000E2E3AF0E0E830D091505040E695001CA4
:10161000CAF729D0FE2F27D0660F771F881FBB1F60
:10162000261737074807AB07B0E809F0BB0B802D3A
:10163000BF01FF2793585F4F2AF09E3F510568F086
:10164000D8C222C35F3FECF3983EDCF386957795D2
:101650006795B795F7959F5FC9F7880F911D969588
:10166000879597F90895E1E0660F771F881FBB1FE4
:10167000621773078407BA0720F0621B730B840B91
:10168000BA0BEE1F88F7E095089504D06894B11165
:10169000FBC20895DED288F09F5790F0B92F9927AA
:1016A000B751A0F0D1F0660F771F881F991F1AF06D
:1016B000BA95C9F712C0B13081F0E5D2B1E0089512
:1016C000E2C2672F782F8827B85F39F0B93FCCF393
:1016D000869577956795B395D9F73EF49095809563
:1016E000709561957F4F8F4F9F4F089588C2B1D2FB
:1016F000E8F3E894E0E0BB279F57F0F02AED3FE0E5
:1017000049EC06C0EE0FBB0F661F771F881F28F03D
:10171000B23A62077307840728F0B25A620B730B60
:10172000840BE3959A9572F7803830F49A95BB0F45
:10173000661F771F881FD2F7904819C0EF93E0FF0C
:1017400006C0A2EA2AED3FE049EC5FEBE0DE68D29A
:101750000F90039401FC9058E4EEF0E014C09F93C6
:10176000C6DF0F9007FCEE5FE9CF9F3F31F091504D
:1017700020F4879577956795B795880F911D969575
:10178000879597F908959F938F937F936F93FF9316
:10179000EF939B01AC01CAD1EF91FF9105D02F913E
:1017A0003F914F915F91C2C1DF93CF931F930F93EE
:1017B000FF92EF92DF927B018C01689405C0DA2ED4
:1017C000EF01C0D1FE01E894A59125913591459195
:1017D0005591AEF3EF019BDEFE019701A801DA946B
:1017E00079F7DF90EF90FF900F911F91CF91DF91EC
:1017F0000895CF93DF938230910510F482E090E05A
:10180000E091A281F091A38120E030E0C0E0D0E03F
:10181000309711F14081518148175907C0F048179E
:10182000590761F482819381209719F09B838A8301
:101830002BC09093A3818093A28126C021153105EE
:1018400019F04217530718F49A01BE01DF01EF01A6
:101850000280F381E02DDCCF2115310509F1281B31
:10186000390B2430310590F412968D919C91139789
:101870006115710521F0FB019383828304C090936D
:10188000A3818093A281FD01329644C0FD01E20F45
:10189000F31F81939193225031092D933C933AC0C9
:1018A0002091A0813091A181232B41F4209102024B
:1018B000309103023093A1812093A08120910002F6
:1018C000309101022115310541F42DB73EB7409109
:1018D000040250910502241B350BE091A081F09188
:1018E000A181E217F307A0F42E1B3F0B281739073D
:1018F00078F0AC014E5F5F4F2417350748F04E0F6C
:101900005F1F5093A1814093A0818193919302C066
:10191000E0E0F0E0CF01DF91CF9108950F931F93A6
:10192000CF93DF93009709F48CC0FC0132971382A8
:1019300012820091A2811091A3810115110581F4F9
:1019400020813181820F931F2091A0813091A1814C
:101950002817390779F5F093A181E093A08171C030
:10196000D80140E050E0AE17BF0750F412962D9119
:101970003C911397AD012115310509F1D901F3CF40
:101980009D01DA013383228360817181860F971F65
:101990008217930769F4EC0128813981260F371FDC
:1019A0002E5F3F4F318320838A819B819383828383
:1019B000452B29F4F093A381E093A28142C01396B2
:1019C000FC93EE931297ED01499159919E01240FDA
:1019D000351FE217F30771F480819181840F951F01
:1019E000029611969C938E938281938113969C9379
:1019F0008E931297E0E0F0E0D80112968D919C91C1
:101A00001397009719F0F8018C01F6CF8D919C91F6
:101A100098012E5F3F4F820F931F2091A08130913C
:101A2000A1812817390769F4309729F41092A3810E
:101A30001092A28102C0138212821093A18100939E
:101A4000A081DF91CF911F910F91089581E090E0E7
:101A5000F89420C1DC0101C06D9341505040E0F783
:101A6000089540D008F481E00895E89409C097FBF8
:101A70003EF490958095709561957F4F8F4F9F4F65
:101A80009923A9F0F92F96E9BB279395F6958795A9
:101A900077956795B795F111F8CFFAF4BB0F11F46C
:101AA00060FF1BC06F5F7F4F8F4F9F4F16C0882313
:101AB00011F096E911C0772321F09EE8872F762F49
:101AC00005C0662371F096E8862F70E060E02AF08A
:101AD0009A95660F771F881FDAF7880F9695879576
:101AE00097F90895990F0008550FAA0BE0E8FEEF4B
:101AF00016161706E807F907C0F012161306E407D2
:101B0000F50798F0621B730B840B950B39F40A26CA
:101B100061F0232B242B252B21F408950A2609F4A8
:101B2000A140A6958FEF811D811D08950BD078C02F
:101B300069D028F06ED018F0952309F05AC05FC024
:101B40001124A2C07ED0A0F3959FD1F3950F50E051
:101B5000551F629FF001729FBB27F00DB11D639F5F
:101B6000AA27F00DB11DAA1F649F6627B00DA11D05
:101B7000661F829F2227B00DA11D621F739FB00DAB
:101B8000A11D621F839FA00D611D221F749F33271B
:101B9000A00D611D231F849F600D211D822F762FB4
:101BA0006A2F11249F5750408AF0E1F088234AF0B1
:101BB000EE0FFF1FBB1F661F771F881F91505040FD
:101BC000A9F79E3F510570F014C05EC05F3FECF373
:101BD000983EDCF3869577956795B795F795E795E9
:101BE0009F5FC1F7FE2B880F911D9695879597F9FA
:101BF000089597F99F6780E870E060E008959FEF8F
:101C000080EC089500240A94161617061806090693
:101C1000089500240A941216130614060506089562
:101C2000092E0394000C11F4882352F0BB0F40F4EA
:101C3000BF2B11F460FF04C06F5F7F4F8F4F9F4F2A
:101C4000089557FD9058440F551F59F05F3F71F0AC
:101C50004795880F97FB991F61F09F3F79F0879513
:101C60000895121613061406551FF2CF4695F1DF9C
:101C700008C0161617061806991FF1CF869571052C
:101C8000610508940895E894BB2766277727CB0160
:101C900097F9089510E0C2E8D0E000E005C0802F79
:101CA000FE011BDC2196011DC338D10780E0080727
:061CB000B1F7F894FFCF2C
:101CB6000000A4818000000000008C020902560288
:101CC60034024802D202564D4450565F317C315F91
:081CD600564D4450560D0A0062
:00000001FF
